:0400000500000A816C
:020000040000FA
:1000000000040020810A000015070000610A0000BA
:100010001F07000029070000330700000000000050
:10002000000000000000000000000000A50A000021
:100030003D070000000000004707000051070000D6
:100040005B070000650700006F07000079070000EC
:10005000830700008D07000097070000A10700003C
:10006000AB070000B5070000BF070000C90700008C
:10007000D3070000DD070000E7070000F1070000DC
:10008000FB070000050800000F0800001908000029
:10009000230800002D080000370800004108000078
:1000A0004B080000550800005F08000069080000C8
:1000B000730800007D080000870800009108000018
:1000C0009B080000A5080000AF080000B908000068
:1000D000C3080000CD080000D7080000E1080000B8
:1000E000EB080000F5080000FF0800000909000007
:1000F000130900001D090000270900003109000054
:100100003B0900001FB500F003F88DE80F001FBD8C
:1001100000F0ACBC40F6FC7108684FF01022401CA7
:1001200008D00868401C09D00868401C04D0086842
:1001300000F037BA9069F5E79069F9E7704770B554
:100140000B46010B184400F6FF70040B4FF0805073
:100150000022090303692403406943431D1B104621
:1001600000F048FA29462046BDE8704000F042BA47
:10017000F0B54FF6FF734FF4B4751A466E1E11E0DA
:10018000A94201D3344600E00C46091B30F8027B3B
:10019000641E3B441A44F9D19CB204EB134394B25D
:1001A00004EB12420029EBD198B200EB134002EBB2
:1001B000124140EA0140F0BDF34992B00446D1E952
:1001C0000001CDE91001FF224021684600F0F4FB58
:1001D00094E80F008DE80F00684610A902E004C8FB
:1001E00041F8042D8842FAD110216846FFF7C0FF7C
:1001F0001090AA208DF8440000F099F9FFF78AFFCB
:1002000040F6FC7420684FF01025401C0FD0206889
:1002100010226946803000F078F92068401C08D030
:100220002068082210A900F070F900F061F9A869AF
:10023000EEE7A869F5E74FF080500369406940F6A2
:10024000FC71434308684FF01022401C06D0086838
:1002500000F58050834203D2092070479069F7E788
:100260000868401C04D00868401C03D00020704778
:100270009069F9E70420704770B504460068C34DE3
:10028000072876D2DFE800F033041929631E250021
:10029000D4E9026564682946304600F062F92A46CE
:1002A0002146304600F031F9AA002146304600F0E0
:1002B00057FB002800D0032070BD00F009FC4FF46C
:1002C000805007E0201D00F040F90028F4D100F034
:1002D000FFFB60682860002070BD241D94E80700C3
:1002E000920000F03DFB0028F6D00E2070BDFFF715
:1002F000A2FF0028FAD1D4E901034FF0805100EBAE
:10030000830208694D69684382420ED840F6F8704E
:1003100005684FF010226D1C09D0056805EB8305B8
:100320000B6949694B439D4203D9092070BD55694A
:10033000F4E70168491C03D00068401C02D003E0C8
:100340005069FAE70F2070BD2046FFF735FFFFF731
:1003500072FF0028F7D1201D00F0F7F80028F2D135
:1003600060680028F0D100F0E2F8FFF7D3FE00F05B
:10037000BFF8072070BD10B50C46182802D0012028
:10038000086010BD2068FFF777FF206010BD41684E
:10039000054609B1012700E0002740F6F8742068FF
:1003A0004FF01026401C2BD02068AA68920000F065
:1003B000D7FA38B3A86881002068401C27D020688D
:1003C000FFF7BDFED7B12068401C22D026684FF051
:1003D0008050AC686D68016942695143A9420DD9EA
:1003E000016940694143A14208D92146304600F0E5
:1003F000B8F822462946304600F087F800F078F831
:100400007069D2E700F093F8FFF784FEF6E77069B1
:10041000D6E77669DBE740F6FC7420684FF01026DB
:10042000401C23D02068401C0CD02068401C1FD0EA
:100430002568206805F18005401C1BD027683879A5
:10044000AA2819D040F6F8700168491C42D001680A
:10045000491C45D00168491C3ED001680968491C07
:100460003ED00168491C39D000683EE0B069DAE747
:10047000B569DEE7B769E2E710212846FFF778FEA5
:100480003968814222D12068401C05D0D4F8001080
:1004900001F18002C03107E0B169F9E730B108CA63
:1004A00051F8040D984201D1012000E000208A4259
:1004B000F4D158B1286810B1042803D0FEE72846CB
:1004C000FFF765FF3149686808600EE0FFF722FE1C
:1004D00000F00EF87169BBE77169BFE7706904E06D
:1004E0004FF480500168491C01D000F0CBFAFEE7C0
:1004F000BFF34F8F26480168264A01F4E06111439B
:100500000160BFF34F8F00BFFDE72DE9F0411746B3
:100510000D460646002406E03046296800F054F8EF
:10052000641C2D1D361DBC42F6D3BDE8F08140F69B
:10053000FC700168491C04D0D0F800004FF48051D1
:10054000FDE54FF010208069F8E74FF080510A690F
:10055000496900684A43824201D810207047002050
:10056000704770B50C4605464FF4806608E0284693
:1005700000F017F8B44205D3A4F5806405F5805562
:10058000002CF4D170BD0000F40A0000000000202F
:100590000CED00E00400FA05144801680029FCD0C5
:1005A0007047134A0221116010490B68002BFCD0E0
:1005B0000F4B1B1D186008680028FCD0002010603D
:1005C00008680028FCD07047094B10B501221A605A
:1005D000064A1468002CFCD0016010680028FCD08A
:1005E0000020186010680028FCD010BD00E4014015
:1005F00004E5014070B50C46054600F073F810B9EB
:1006000000F07EF828B121462846BDE8704000F091
:1006100007B821462846BDE8704000F037B8000012
:100620007FB5002200920192029203920A0B000B06
:100630006946012302440AE0440900F01F0651F80C
:10064000245003FA06F6354341F82450401C8242F8
:10065000F2D80D490868009A10430860081D016827
:10066000019A1143016000F03DF800280AD00649C4
:1006700010310868029A10430860091D0868039A3F
:10068000104308607FBD00000006004030B50F4CED
:10069000002200BF04EB0213D3F800582DB9D3F8A1
:1006A000045815B9D3F808581DB1521C082AF1D3C3
:1006B00030BD082AFCD204EB0212C2F80008C3F8CD
:1006C00004180220C3F8080830BD000000E0014013
:1006D0004FF08050D0F83001082801D0002070473A
:1006E000012070474FF08050D0F83011062905D016
:1006F000D0F83001401C01D0002070470120704725
:100700004FF08050D0F830010A2801D00020704707
:100710000120704708208F490968095808471020B0
:100720008C4909680958084714208A4909680958FA
:100730000847182087490968095808473020854923
:100740000968095808473820824909680958084744
:100750003C20804909680958084740207D490968BC
:100760000958084744207B49096809580847482028
:1007700078490968095808474C207649096809589A
:10078000084750207349096809580847542071499F
:1007900009680958084758206E49096809580847E8
:1007A0005C206C4909680958084760206949096854
:1007B00009580847642067490968095808476820AC
:1007C00064490968095808476C2062490968095852
:1007D000084770205F4909680958084774205D4937
:1007E00009680958084778205A490968095808478C
:1007F0007C205849096809580847802055490968EC
:10080000095808478420534909680958084788202F
:1008100050490968095808478C204E490968095809
:10082000084790204B4909680958084794204949CE
:10083000096809580847982046490968095808472F
:100840009C204449096809580847A0204149096883
:1008500009580847A4203F49096809580847A820B3
:100860003C49096809580847AC203A4909680958C1
:100870000847B0203749096809580847B420354966
:10088000096809580847B8203249096809580847D3
:10089000BC203049096809580847C0202D4909681B
:1008A00009580847C4202B49096809580847C82037
:1008B0002849096809580847CC2026490968095879
:1008C0000847D0202349096809580847D4202149FE
:1008D000096809580847D8201E4909680958084777
:1008E000DC201C49096809580847E02019490968B3
:1008F00009580847E4201749096809580847E820BB
:100900001449096809580847EC2012490968095830
:100910000847F0200F49096809580847F4200D4995
:10092000096809580847F8200A490968095808471A
:10093000FC2008490968095808475FF48070054998
:10094000096809580847000003480449024A034B54
:100950007047000000000020000B0000000B0000AA
:1009600040EA010310B59B070FD1042A0DD310C82C
:1009700008C9121F9C42F8D020BA19BA884201D97E
:10098000012010BD4FF0FF3010BD1AB1D30703D0C6
:10099000521C07E0002010BD10F8013B11F8014B7C
:1009A0001B1B07D110F8013B11F8014B1B1B01D198
:1009B000921EF1D1184610BD02F0FF0343EA032254
:1009C00042EA024200F005B87047704770474FF0A6
:1009D00000020429C0F0128010F0030C00F01B800C
:1009E000CCF1040CBCF1020F18BF00F8012BA8BF1A
:1009F00020F8022BA1EB0C0100F00DB85FEAC17CDE
:100A000024BF00F8012B00F8012B48BF00F8012B90
:100A100070474FF0000200B51346944696462039C1
:100A200022BFA0E80C50A0E80C50B1F12001BFF4A7
:100A3000F7AF090728BFA0E80C5048BF0CC05DF80D
:100A400004EB890028BF40F8042B08BF704748BF5B
:100A500020F8022B11F0804F18BF00F8012B7047CF
:100A6000014B1B68DB6818470000002009480A4951
:100A70007047FFF7FBFFFFF745FB00BD20BFFDE719
:100A8000064B1847064A1060016881F308884068E1
:100A900000470000000B0000000B000017040000DE
:100AA000000000201EF0040F0CBFEFF30881EFF3ED
:100AB0000981886902380078182803D100E0000015
:100AC000074A1047074A12682C3212681047000084
:100AD00000B5054B1B68054A9B58984700BD0000B0
:100AE0007703000000000020F00A0000040000006E
:100AF000001000000000000000FFFFFF0090D00386
:020000040007F3
:1040000000000120E18B0700098C07000B8C0700E2
:104010000D8C07000F8C0700118C070000000000BA
:10402000000000000000000000000000A94507009B
:10403000158C070000000000178C07007D4D07005D
:10404000094E07001B8C0700B58907001B8C070071
:104050001B8C07001B8C07001B8C07001B8C0700A8
:104060001B8C07001B8C07001B8C07001B8C070098
:104070001B8C07001B8C07001B8C07001B8C070088
:104080001B8C0700A17207001B8C07001B8C07000C
:104090005D7307001B8C0700214B07001B8C07007A
:1040A0001B8C07001B8C07001B8C07001B8C070058
:1040B0001B8C07001B8C07000000000000000000A4
:1040C0001B8C07001B8C07001B8C07001B8C070038
:1040D0001B8C07001B8C07001B8C070000000000D6
:1040E00000000000000000000000000000000000D0
:1040F00000000000000000000000000000000000C0
:1041000000000000000000000000000000000000AF
:10411000000000000000000000000000000000009F
:10412000000000000000000000000000000000008F
:10413000000000000000000000000000000000007F
:10414000000000000000000000000000000000006F
:10415000000000000000000000000000000000005F
:10416000000000000000000000000000000000004F
:10417000000000000000000000000000000000003F
:10418000000000000000000000000000000000002F
:10419000000000000000000000000000000000001F
:1041A000000000000000000000000000000000000F
:1041B00000000000000000000000000000000000FF
:1041C00000000000000000000000000000000000EF
:1041D00000000000000000000000000000000000DF
:1041E00000000000000000000000000000000000CF
:1041F00000000000000000000000000000000000BF
:104200000348044B834202D0034B03B11847704765
:1042100060840020608400200000000005480649FA
:104220000B1AD90F01EBA301491002D0034B03B1C4
:104230001847704760840020608400200000000060
:1042400010B5064C237843B9FFF7DAFF044B13B1DE
:104250000448AFF300800123237010BD6084002068
:10426000000000008092070008B5044B1BB1044910
:104270000448AFF30080BDE80840CFE7000000002D
:104280006484002080920700A3F5803A704700BF45
:10429000154B002B08BF114B9D46FFF7F5FF002182
:1042A0008B460F461148124A121A00F079F80C4B4F
:1042B000002B00D098470B4B002B00D098470020D4
:1042C000002104000D000B4800F016F800F044F83F
:1042D0002000290000F06AFA00F014F8000008003D
:1042E00000000000000000000000012060840020A9
:1042F0007CAE002025430700002301461A461846DD
:1043000000F09EB808B50021044600F0CDF8044B3B
:104310001868C36B03B19847204600F01DF900BF31
:10432000AC91070038B50A4C0A4D641BA4100AD0A2
:1043300004F18043013B05EB8305013C55F804394A
:104340009847002CF9D1BDE8384004F029BF00BFE0
:10435000608400205C84002070B50D4E0D4D761BEE
:10436000B61006D00024013455F8043B9847A64205
:10437000F9D1094E094D761B04F00CFFB61006D09A
:104380000024013455F8043B9847A642F9D170BD8A
:1043900054840020548400205C8400205484002035
:1043A000F0B4860746D0541E002A3CD0CAB2034659
:1043B00002E014F1FF3436D303F8012B9D07F8D146
:1043C000032C29D9CDB245EA05250F2C45EA054530
:1043D00033D9A4F11006360903F1200707EB0617BD
:1043E00003F1100242E9045542E902551032BA4283
:1043F000F8D1721C14F00C0F03EB021204F00F063C
:1044000013D0331F23F003030433134442F8045B37
:104410009342FBD106F003042CB1C9B21C4403F84B
:10442000011B9C42FBD1F0BC704734461346002C64
:10443000F3D1F8E714460346C2E71A462646E0E7FA
:10444000F0B4184C2568D5F8484114B365681F2DA1
:1044500024DC38B9AB1C0135656044F8231000201A
:10446000F0BC704704EB85060127C6F8882007FAE0
:1044700005F2D4F88871022847EA0207C4F8887167
:10448000C6F80831E6D1D4F88C311A43C4F88C212F
:10449000E0E705F5A674C5F84841D7E74FF0FF30CF
:1044A000DEE700BFAC9107002DE9F04F244B83B04D
:1044B000D3F800B001908A464FF00008DBF848615D
:1044C00096B17468651E0FD4013406EB840401278D
:1044D000BAF1000F0BD0D4F80031534507D0013D9D
:1044E0006B1CA4F10404F3D103B0BDE8F08F736832
:1044F0002268013BAB420CBF7560C4F80080002A03
:10450000EDD0D6F88811D6F8049007FA05FC1CEA1D
:10451000010F08D1904772684A45CFD1DBF8483186
:10452000B342DCD0CAE7D6F88C31D4F880101CEA4C
:10453000030F02D101989047EDE708469047EAE75C
:10454000AC910700024B13B10248FFF7D5BE70478C
:104550000000000025430700FEE700BF38B50D4608
:10456000E8B90968C9B10F4CA1420BD0631A3B2BC3
:1045700011D93C22204604F081FB03E0CA5CE254DE
:10458000013BFBD2074800223C2103F0EDF9002358
:10459000A0872B6038BD3D23F2E70E23F9E7012306
:1045A000F7E700BF807F0020074A6FF002039E45B7
:1045B00002D1EFF3098101E0EFF308818869A0F1EE
:1045C00002000078104700BF5D45070038B505467A
:1045D000A8B10D4C00223C21204603F0C5F9A38F61
:1045E00083420ED1224604F13C0152F8040B45F8F7
:1045F000040B8A42F9D10133A387002038BD0E2075
:10460000FCE70B20FAE700BF807F00200B2970B584
:104610000446154608462FD92389053304EB430188
:104620002044431ADAB2012A26D9814224D81348F9
:1046300004F024FB2388522B06D1AB0711D06288EB
:104640004AF6AF539A420CD00F2014E034F8022BF4
:10465000824204D02E88964203F1010308D1002043
:1046600009E0218900230A344FF6FE7043F20C055D
:104670009942EBD80B2070BD0920FCE77C84002018
:1046800008B5002203F070F9044A5178137843EA20
:104690000123984214BF0B20002008BD7C84002019
:1046A00038B50C4C21684B1C054612D00A484FF413
:1046B000805204F0B3FA48B115B1206800F0F4FB61
:1046C000054920684FF4806200F00EFC4FF0FF3384
:1046D000236038BD30840020888400202DE9F0411B
:1046E000DFF84480044624F47F651846D8F800308B
:1046F00025F00F05AB420E46174609D0FFF7D0FF55
:104700000848C8F800504FF48052294604F0B6FA21
:104710000448C4F30B043A4631462044BDE8F04156
:1047200004F0ACBA8884002030840020BFF34F8F9F
:104730000549064BCA6802F4E0621343CB60BFF33D
:104740004F8F00BFFDE700BF00ED00E00400FA0559
:104750004BDF704710DF704711DF704713DF704782
:1047600018DF704760DF704769DF704761DF7047AF
:104770001FB50023CDE9013303936846022300935C
:10478000FFF7EEFF05B05DF804FB000008B5034B32
:104790001B68DB0700D500BEFFF7C8FFF0ED00E0A7
:1047A000014B1878704700BF89940020BFB5AE4B0D
:1047B00040F20462C3F8402500F018FA00F04EFE03
:1047C000002000F0E3FA00F0C3FE48B1052000F03D
:1047D000DDFA00F0CFFE00F0F3FE062000F0D6FA7E
:1047E0004FF08043A14FD3F81C55B12D0CBF0123CE
:1047F00000233B704CD0A5F1A8014C424C419C4E8B
:10480000DFF8908204F0010333704FF08043D3F857
:104810000034002C3FD14E2D3CD0572D3AD0954A34
:1048200012681168944A914201D1DA0732D46D2D91
:1048300031D0142000F07CF904463378002B35D1B8
:10484000142000F075F910B1162000F071F900F095
:104850000100307000F03CFDDFF83CA2814630B131
:104860002CB9844B1B681A68844B9A423BD043F2A4
:1048700004031B68434509BF43F208034FF49053F8
:104880001B6803F500731B68534521D101242AE0FE
:104890000124B4E701244FF0804300226D2DC3F8BA
:1048A0001C2500F0C580002CC7D1C2E70120CEE74F
:1048B0004C4618E04FF480030B6054E0022000F0F7
:1048C00065FA012000F062FA94E000221146A9E0A6
:1048D000002CDBD1B9F1000FEAD022464FF47A71F7
:1048E000204600F0D3FD43F20403624A1B681268BD
:1048F000434509BF43F208034FF490531B6803F587
:1049000000731B6853450CBF5C4B002313601CB93C
:10491000B9F1000F40F08C803378002BCED0082006
:1049200000F034FA3B780BB9FFF722FF01234FF474
:10493000E8203B70FFF712FF514B52491868019075
:1049400001A8FFF707FF504991F816335A09EC23E5
:104950001341DB0707D54D4B9A68002AAAD01A6885
:1049600042F480021A600C22494B029300210DEBA5
:104970000200FFF715FD40F20113029A039303A909
:104980004020FFF7F1FE0C2200210DEB0200FFF7A3
:1049900007FD9DF80C30029A43F0010303A9A02003
:1049A0008DF80C30FFF7E0FE0C2200210DEB020029
:1049B000FFF7F6FC0124F723029AADF80E3003A9A5
:1049C00023208DF80C40FFF7CFFE0C2200210DEBC9
:1049D0000200FFF7E5FC0623029A8DF80C4003A9BC
:1049E00020208DF80E40ADF81030FFF7BDFE02A874
:1049F000FFF7B8FE43F2040330781B68434509BF54
:104A000043F208034FF490531B6803F500731B68CF
:104A1000534504D0572D02D04E2D7FF456AF0122BE
:104A200040F6B83100F032FD33780BB1FFF794FE59
:104A300000F02CF900F04CFC98B100F089FD80B931
:104A400043F204031B68434505D13B780BB9FFF7DC
:104A50008FFEFFF781FE074B1B6800221A6000F0F3
:104A600049FDFFF763FE00BF00A000408A940020CC
:104A70008994002034840020D51A5A007E67E54EC0
:104A8000B09107008D47070000E100E070AE002004
:104A900000800020DBE5B1517CB0EE8710B5FEB0A0
:104AA0004FF4FA73ADF802300DF10201002301A8B2
:104AB000ADF80430FFF75AFE044640B9BDF80430A3
:104AC000102B07D0112B0CD001A801F00BF82046B9
:104AD0007EB010BD054B01221A70072000F056F978
:104AE000F2E7024B18700820F8E700BF8894002016
:104AF00013B5002301A80193FFF72AFE044610B95D
:104B0000019802F077FA204602B010BD08B5FFF711
:104B1000C5FF0528FBD1FFF7EBFF0528F7D108BD3E
:104B20000021024A084602F041BE00BF0D4B0700BB
:104B30004FF0A043D3F8103523FA00F0C04300F043
:104B40000100704700234FF0FF328360C0F800354A
:104B5000C0F86025C0F86425C0F86825C0F86C2549
:104B600040F2FF32C0F80435C0F80825C0F80C3513
:104B7000C0F81035C0F81435C0F82035C0F8243519
:104B80007047000070B5174B01F5E0744FF0A04579
:104B900000220326C3F8002500F5AC7045F8246018
:104BA000012404FA01F6C5F80C6543F82010FF2132
:104BB000C3F804250220C3F808150421C3F80C1516
:104BC000C3F810050848C3F81425C3F82005C3F836
:104BD0002415C3F82825C3F82C25C3F80045C3F8CD
:104BE000102170BD00C001408096002038B54FF004
:104BF000804301240025DC60C3F818559C604FF009
:104C0000A043194AC3F85027C3F85827174B4FF44D
:104C1000C8502343984711212846FFF7B3FF1321BB
:104C20002046FFF7AFFF124A1E21082002F09AFD2E
:104C300008B102F051FE02F0FBFC0E490E4BE020E1
:104C400081F823001B684FF47A72B3FBF2F3013B47
:104C5000B3F1807F07D2094A5360002381F8230013
:104C600093600723136038BD0C000300C091070058
:104C70008C94002000ED00E03884002010E000E07B
:104C80000148FFF75FBF00BF00C0014008B5134BEC
:104C900000211960FFF7F4FF114B4FF40032C3F805
:104CA000802003F1C04303F53C534FF48032C3F836
:104CB0004823C3F8082301225A609A604FF08043CA
:104CC0000220DA600B464FF0A04203F5E071013399
:104CD000202B42F82100F8D108BD00BF10E000E011
:104CE00000E100E0074B23F81010074B00221A6088
:104CF00082B01B680193019B044B01221A6002B031
:104D0000704700BF8096002010C1014008C00140DC
:104D100010B5174B1C68174B1868B4FBF0F100FB7B
:104D20001142B2EB500F88BF821A4F214308514302
:104D3000B1FBF3F1C1F1FF0189B20020FFF7D2FF0F
:104D40000D4B1A68B4FBF2F102FB1143B3EB520FA7
:104D500088BFD31A8F2150085943B1FBF0F1C1F13C
:104D6000FF01BDE8104089B20120FFF7BBBF00BFC3
:104D70007C9600208896002090960020024A1368B6
:104D800001331360FFF7C4BF7C9600201B4A1168F3
:104D9000082823D8DFE800F013051322221A1E2466
:104DA0002A00174B40F6B83018604FF47F4303F0E9
:104DB000103323F08053994218BF13607047104B93
:104DC0004FF4967018604FF47F03F0E70C4B6422A9
:104DD0001A6070470A4B40F6B83018600B46E6E799
:104DE000084B40F6B8301860FF23E0E7054B4FF45E
:104DF000967018604FF0FF13D9E700BF8C96002023
:104E000088960020909600201FB54FF08043D3F87D
:104E1000044361070CD5D3F8082103F584733AB134
:104E200000221A601B680193019B114B1B68984775
:104E3000A2060AD50F4B1A683AB1002018601B6809
:104E40000293029B0C4B1B68984763060ED50B4BD5
:104E50001A685AB100221A601B680393039B064B21
:104E60001B68012004B0BDE81040184704B010BD15
:104E700094960020140100409896002018010040EC
:104E800070B5084C0023934200D170BD51F82350F7
:104E9000D4F80064F607FBD540F82350BFF35F8FCA
:104EA0000133F0E700E001404FF080531A69B0FB96
:104EB000F2F302FB130373B9084B0222C3F8042573
:104EC000C3F80805D3F80024D207FBD50022044814
:104ED000C3F8042570470348704700BF00E0014055
:104EE0000000AD0B0A00AD0B10B5054C0123C4F852
:104EF0000435FFF7C5FF0023C4F8043510BD00BF1B
:104F000000E00140BFF34F8F0549064BCA6802F429
:104F1000E0621343CB60BFF34F8F00BFFDE700BFDC
:104F200000ED00E00400FA05044B1868421C04BFC1
:104F3000034B1878831F58425841704730010010C6
:104F4000E00F00F0074B1B78062B09D1064B1B68BE
:104F5000C3F30313033B032B02D8044AD05C70470E
:104F600000207047E00F00F0E80F00F0CA91070042
:104F700008B5FFF7D9FF28B18D4B8E4A1B68C3F3E4
:104F800004231360FFF7DEFF10B18B4B8B4A1A60CE
:104F9000FFF7CAFF28B18A4B8A4A1B68C3F3423322
:104FA0001360FFF7CFFF20B1874AD36823F08073E7
:104FB000D360FFF7B9FF40B14FF080430022C3F840
:104FC0000C21C3F81021C3F83825FFF7BBFF10B13F
:104FD0007E4B03221A60FFF7B5FF40B17C4B0522E0
:104FE0001A6001229A6700229A603F225A60794B28
:104FF0001A68501C0BBF784B784B1A781B6802BF9D
:1050000008331B68C3F30313062A4DD1033B032B5C
:1050100003D8734AD35C002B46D04FF08052714BBB
:10502000D2F80414C3F82015D2F80814C3F82415D4
:10503000D2F80C14C3F82815D2F81014C3F82C15A4
:10504000D2F81414C3F83015D2F81814C3F8341574
:10505000D2F81C14C3F84015D2F82014C3F8441534
:10506000D2F82414C3F84815D2F82814C3F84C1504
:10507000D2F82C14C3F85015D2F83014C3F85415D4
:10508000D2F83414C3F86015D2F83814C3F8641594
:10509000D2F83C14C3F86815D2F84014C3F86C1564
:1050A000D2F84424C3F87025FFF73EFF28B14E4BD9
:1050B0004E4A1B6803F04F031360FFF735FF48B1FA
:1050C0004FF08043D3F80024D10744BF6FF00102B2
:1050D000C3F800243F4B1B68062B09D13F4B1B68CC
:1050E000033B022B81BF424A136843F48063136081
:1050F000404AD2F8883043F47003C2F88830BFF3D6
:105100004F8FBFF36F8F4FF01023D3F80C22D207CD
:105110001ED5394B0122C3F80425D3F80024002AF8
:10512000FBD04FF01022D2F80C3223F00103C2F86A
:105130000C32314B1A46D3F800140029FBD0002161
:10514000C3F80415D2F80034002BFBD0FFF7DAFEC9
:10515000D3F80022002A03DBD3F80432002B23DA31
:10516000254B0122C3F80425D3F80024002AFBD0E4
:105170004FF010221521C2F80012D3F80024002AA3
:10518000FBD04FF010231522C3F804221A4B1A4605
:10519000D3F800140029FBD00021C3F80415D2F87D
:1051A0000034002BFBD0D1E7144B154A1A6008BD20
:1051B000240300104035014074C007400DF0ADBA23
:1051C000440200103C050040F0ED00E0A005004066
:1051D0001056004030010010E00F00F034010010C4
:1051E000C691070000C0004058020010E40E0040C5
:1051F0003C17004000ED00E000E001403884002052
:105200000090D00313DF704718DF7047064B187803
:10521000012803D1012904BF0221197012B11046DF
:1052200002F05ABB704700BFC896002070B50E4C04
:105230000E4D0F4ED4F800347BB1C4F80056C4F8BC
:105240000456C4F80856C4F80C56C4F81056C4F8EE
:105250001456C4F81856C4F81C5602F00DFB3378E7
:10526000023B022BE6D870BD000001403546526E6D
:10527000C896002008B5FFF793FA88B111481C21A1
:1052800001F050FF08B102F027FB0F490D48002341
:105290001C2201F037FF98B1BDE8084002F01CBBAA
:1052A0004FF4FE20FFF700FE072207494FF4FE20CF
:1052B000FFF71AFE054B1A78012A04BF02221A7062
:1052C00008BD00BFC0960020CC960020C8960020E4
:1052D00013B543F2040301A81A68124B9A420ABF9D
:1052E00043F208034FF480541C6800F097F92368D8
:1052F000013302D16368013311D0019B1A88012A5E
:105300000DD1588820B199680022204602F02CFB6C
:10531000019B5B881B1A5842584102B010BD002007
:10532000FBE700BFDBE5B15184B02DE9F34108ACE8
:1053300084E80F009DF82040BDF822800B9D01A855
:10534000DDE9097600F06AF954B9384B0122FF21F2
:10535000A3F802809D601A809980354B1A7012E084
:10536000012C17D1314BBA192A449A60A5221A8010
:10537000FF229A800C9AA3F80280C3E903765D614C
:105380009A612B4B1C70FFF775FF02B0BDE8F0412E
:1053900004B07047032C0FD1019A244B1188198057
:1053A000518892689A60C3E90376AA2259809A804C
:1053B0005D611F4B0122D1E7022C15D1019A1B4BD5
:1053C0001188A5290AD100229A60FF221A60FF22C3
:1053D0009A800022C3E903225A61EAE719805188C2
:1053E000926859809A60F2E7052C0ED1FFF7D8F940
:1053F00040B100F07BFD08B102F06EFA0C4B0322C5
:105400001A70C2E700F000FAF5E7042C08D1074B48
:1054100000229A60FF221A60019A92889A80B2E76D
:10542000062CB2D1024B0422EAE700BFCC96002042
:10543000C896002000B5084B1B7889B043B90523F6
:105440008DF80C30079B009303AB0FCBFFF76CFF7D
:1054500009B05DF804FB00BFBC9600201FB5002317
:10546000CDE90233074B019301F018FE30B906492C
:105470004FF4FE2301A84B6001F032FE05B05DF849
:1054800004FB00BF0D520700C096002070B5054612
:105490000E4600F09FFF044628B935B100F082FCAB
:1054A0000446FFF7C3FE204670BDBEB10D4B0E4A49
:1054B0000E481D70294602F0EBF84FF400444FF4FB
:1054C000FA7000214FF47A720023E4FB060103F026
:1054D000E5FC2A460146064802F0ECF800F070F9B7
:1054E000DEE700BFBC96002035540700D0910700CE
:1054F0009C9600201FB5144B4FF0FF32C3F880205C
:10550000C3F8802143F204031A68104B9A420ED16B
:1055100043F208031C682046FFF774FE10B14FF0F9
:1055200000531C60204600F09DF804B010BD00231D
:10553000CDE902334FF4805406236846CDE90034A8
:10554000FFF762FEEAE700BF00E100E0DBE5B151F2
:1055500007B501A800F062F8019B1A88A52A07D0B8
:105560009888A0F1AA035842584103B05DF804FBA3
:105570000120FAE710B501F059F9A8B10E4B0F4818
:1055800043F00103984701F0B7F808B102F0A4F91D
:1055900001F04CF908B102F09FF901F0F9F8044666
:1055A00038B102F099F904E001F018F90446002836
:1055B000E4D1204610BD00BFE091070000A86100C3
:1055C00000B589B003AB142200211846FEF7E8FEAF
:1055D00002228DF80C20002200920FC8FFF7A4FED3
:1055E000FFF724FE002009B05DF804FB13B5044664
:1055F00001A800F013F8019B1A8822805A88628063
:105600009A68A2609A88A280DA68E2601A692261C8
:105610005A6962619B69A36102B010BD014B0360CE
:10562000704700BF00F00700F0B50346186880F32C
:1056300008885868FF2464B2EFF30585002D01D176
:10564000A64600472546064621273FBAF0B4002467
:10565000002500260027F0B4F92040B2004700BF23
:10566000F0BD00BFFFF7E0BF73B500230DF10201ED
:1056700001A8ADF80230019302F0D0FDF8B9019C09
:1056800025785DB3174B93F83020032A28D00C26D9
:1056900006FB00F29958E9B998189D5093F830200C
:1056A0000132D2B283F83020BDF802300E4A9B0896
:1056B000013B043443608460084602F077F8019BA4
:1056C00033B128B1184602F0C5FD08B102F004F963
:1056D00002B070BD01300428DAD1F0E70720EEE710
:1056E0000420ECE7E89600203157070010B50C23A2
:1056F0000B4A58431118135883B192F830308C6814
:10570000013BDBB282F8303000231350C1E9013392
:10571000201F02F09FFD08B102F0DEF8002010BD4E
:10572000E8960020084609B102F0D6B8704700009C
:10573000214B70B50122214E1A7096F8303003B912
:1057400070BD1E4C0025236883B1013B042B07D894
:10575000DFE803F01C0612032800204600F0D2FE0A
:10576000E8B2FFF7C3FF08B102F0B6F80135042D27
:1057700004F10C04E7D1E0E7A3686360204600F081
:1057800065FE0028ECD002F0A7F8E9E7204600F01B
:105790004BFF00F027FF08B102F09EF80520FFF74D
:1057A000F5FADDE700F06CFF00F08AFFBDE870401D
:1057B0000620FFF7EBBA00BFBC960020E896002059
:1057C00008B50E4B002283F8302011460132042A1E
:1057D000C3E90111196003F10C03F7D1084800F087
:1057E0002FFE02F0B3FC08B102F076F8054802F093
:1057F00099FC08B102F070F8002008BDE89600207E
:10580000255707006956070008B50020FFF76EFF0F
:105810000120FFF76BFF0220FFF768FF0320FFF76F
:1058200065FFBDE8084002F0D9BC006870476CDF36
:1058300070476DDF70476EDF70476FDF704772DF54
:10584000704773DF704774DF704776DF704777DF2C
:1058500070477ADF70477CDF70477FDF704786DFF5
:1058600070478FDF704790DF7047AFDF7047B0DF62
:105870007047B1DF7047B2DF7047B5DF704764DF54
:10588000704766DF70470C2813D8DFE800F0141269
:105890001212121209120712120D0B000220704789
:1058A0000320704704207047042914BF06200520F8
:1058B0007047062070470120704702F00DB810B500
:1058C000044608460321FFF7DEFF03210246204677
:1058D00001F06AF918B1BDE8104001F0FDBF10BD3C
:1058E0000346032B10B50846144620D0042B24D1C0
:1058F00069B1124B18884FF6FF7398421DD01321DF
:10590000FFF7A3FFC8B1BDE8104001F0E5BF1046A6
:1059100002F086F808B101F0DFFF094B1B689C42DA
:105920000BD101220321074801F03EF9EAE70121EA
:10593000FFF7A9FF01210246F5E710BD3E840020D4
:10594000DC9700208C970020F8B50A4DAB889E1894
:105950001D2E14460DDC2F68FE1802F1010C07F80D
:1059600003C07070B01C03F089F9AB8802331A19B8
:10597000AA80F8BD3C970020F0B54E4D297895B02F
:10598000002940F092804C4C019110222046FEF7F5
:1059900007FD4A4B0199236018220EA8FEF700FD6F
:1059A00001238DF8383028231093454B1B78002BAA
:1059B0007DD0444B04AC03F11006186859682246A8
:1059C00003C20833B3421446F7D13F4C10220DEB0B
:1059D0000201E01D03F022F9002868D03B480121B4
:1059E0000460FFF728FF08B101F076FF384B08AAE2
:1059F00003F1100C174618685968164603C6083399
:105A000063453246F7D12068A2880C903148A379CB
:105A1000ADF83420002101228DF836300760FFF701
:105A20000CFF08B101F058FF03238DF84C3004231C
:105A30008DF80E3041F23053ADF81030264B08AAE5
:105A40009B798DF812300DF10F0104A8FFF717FFB5
:105A5000012210460DF10E01FFF776FF1F4803F0FB
:105A6000AFF91E49C2B20920FFF76EFF102208A944
:105A70000620FFF769FF104919480EAAFFF7DFFE5D
:105A800008B101F029FF164C042221780120FFF70C
:105A9000DEFE08B101F020FF20780121FFF7D1FEE2
:105AA00008B101F019FF01232B7015B0F0BD0623DA
:105AB000BEE700BFC09700203C9700201C97002045
:105AC00088970020239207004C970020D897002049
:105AD00053970020BC9700208C970020E691070088
:105AE0003C840020F0B504460146B1B0A34801F063
:105AF0008FF82388262B3BD80F2B04D8012B00F0DE
:105B0000C58031B0F0BD103B162BFAD801A252F877
:105B100023F000BF9D5B0700AB5B0700035B070042
:105B2000DD5B0700C95C0700035B0700035B070040
:105B3000035B0700035B0700035B0700E75C0700EC
:105B4000035B0700035B0700035B0700035B0700C1
:105B5000035B0700035B0700595D0700035B070059
:105B60004B5D0700035B0700035B0700535C070006
:105B7000513B9AB2052AC4D8052BC2D801A252F8CB
:105B800023F000BF995C0700E75C0700035B070098
:105B9000035B07006B5D07003F5C0700784BA28842
:105BA0001A80784B00221A70ABE78023744CADF852
:105BB0002430754B208832221A6010A9012309AACB
:105BC000FFF759FE08B101F087FE704B1B780BB947
:105BD000FFF7D2FE4FF6FF73238092E76C4B03ACC6
:105BE0009A79186899888DF822200790DA1DADF807
:105BF00020101733264610685168254603C5083221
:105C00009A422C46F7D1634B09AA03F118071546AF
:105C100018685968144603C40833BB422246F7D1BA
:105C20001868206056485C4A008810AB8521CDE991
:105C30001456FFF712FE00283FF463AF82E0A37909
:105C4000002B7FF45EAF4E4B13211888FFF7FDFD4C
:105C5000F1E7237A012B7FF454AF4A4B00221A70EC
:105C6000494B19680139196069B910AB14221846FB
:105C7000FEF796FB05228DF84020149A00920FC87B
:105C8000FFF752FB3DE7FFF777FE3AE73C4B002179
:105C90001888FFF7F6FDCEE7A379002B3FF431AF6C
:105CA000A27B043A022A3FF62CAF022B18BF012335
:105CB0008DF840304FF4C173ADF84430304B10A92B
:105CC0001888FFF7D4FDB6E7314A258A518D02F1D5
:105CD000180000238D420CBF014619460732A088E8
:105CE000FFF7BDFDA7E7264B1C884FF6FF75AC42BA
:105CF00027D02A4B1B78F3B12949012308222046DB
:105D0000FFF7B7FDF0B90246014602232046FFF730
:105D1000B0FDB8B92A460C212046FFF7A6FDA0F534
:105D20004053023B012B7FF6ECAE08283FF4E9AE6E
:105D3000112880D1E5E61A4619462046FFF799FD5D
:105D400079E7082001F0C8FDDBE60D4B002218883A
:105D50001146FFF788FD6EE70023ADF84030084B91
:105D600010A91888FFF77DFDCBE6E188044BF729E1
:105D7000188828BFF721FFF780FD5CE78C9700208B
:105D80003E840020C097002040840020D39700204C
:105D90004C97002064970020CE9700208897002021
:105DA0008097002030B5434A434800231370434A8C
:105DB00095B0137000F044FB01F0F2FD044600289A
:105DC00061D13F48FEF702FC00285FD13D4B012224
:105DD0001A7011233C488DF8043002F0F1FF3A4963
:105DE00082B201A8FFF737FD08B101F075FD082266
:105DF000002104A8FEF7D4FA344A4FF0C87304A86F
:105E0000CDE90423FFF725FD08B101F065FD002170
:105E10000C2201A8FEF7C4FA0823ADF804302C4B7D
:105E200002932C482C4B039301A900F03DFD08B1CF
:105E300001F052FD294D4022002104A8FEF7B0FADE
:105E4000284602F0BDFF0595254DADF81000284607
:105E500002F0B6FF0795234DADF81800284602F072
:105E6000AFFF1123ADF8300004A8ADF84C300D950C
:105E700000F0E2FF1C4B30221A7007225A701022E9
:105E80009A70FFF779FD204615B030BD04A8FFF7E2
:105E9000D0FC08B101F020FD9DF8113004A80133B9
:105EA0008DF81130FFF7C3FC002892D001F014FDEB
:105EB0008FE700BFD3970020E1580700CD9700205F
:105EC0004C97002088970020E691070008001800F2
:105ED0003D5F07008C970020BB580700ED9107003D
:105EE0000192070012920700CE97002010B50F4BC9
:105EF00001221A700E4B18884FF6FF73984207D094
:105F00001321FFF7A2FC08B101F0E6FC002010BD50
:105F1000084C2278002AF9D0074B1878FFF793FC39
:105F200008B101F0D9FC00232370EFE7D3970020DC
:105F30003E840020C09700203C840020F0B50B7800
:105F400089B005460C46092B23D8DFE813F02B0057
:105F5000330042000A0018002400FF000801450039
:105F60000D0100F08DFB0421FFF78DFC042102469A
:105F7000284600F019FE60B101F0AEFC09E0FFF721
:105F8000B5FF08B101F0A8FC00F09AFB08B100F0E1
:105F9000A5FB09B0F0BDFFF7A9FF0028F7D001F07D
:105FA0009BFCF4E7734B01221A704B681A78724B12
:105FB0001A70EEE76F4B02261E704B681B78012BA0
:105FC000E7D100F00FFB3146FFF75DFC024631469A
:105FD000CEE7684B0322EBE70520FEF7D7FE654BC3
:105FE0001E78022E2AD0032E50D0012ED1D104AB20
:105FF000102218460021FEF7D3F95F4A237A12785F
:106000008DF81020002203920C2B4FF00302CDE9F3
:106010000120DCD163681846FFF707FC0590181DC6
:10602000FFF703FC069003F10800FFF7FEFB079063
:1060300001A800F00BFA0028ABD0C4E7237A13F0D4
:10604000030011D0C0F104021A44D2B219464FF035
:10605000000C0E4601316768C9B2914207F806C0CC
:10606000F7D11B1A04332372012304936368069348
:10607000237A04A89B08059300F0D6FA002888D05C
:106080000221FFF700FC0221024671E7207A830714
:1060900002D0324631466BE7384E0190314601F06E
:1060A00095FC014618B12846FFF709FC71E76168C5
:1060B000019A306802F0E2FD019801F0EDFC014622
:1060C0000028F0D101A9304601F0F6FC0146002875
:1060D000E9D104230493019B9B08059304A833682A
:1060E000069300F00FFA074640B9254A237A116853
:1060F0000B441360234B32681A604AE709281BD10E
:106100001F4B217A1A68114419601F4B1B78002B12
:106110003FF43FAF1D4C2388013B9BB22380002BF3
:106120007FF437AF284600F005FD08B101F0D4FB3D
:10613000174B1B8823802CE7306801F071FC014667
:1061400010B12846FFF7BBFB3946ACE70E4B0122E6
:106150001A700F4A8B8813800C4A138019E70A4A79
:10616000002313700A4AF8E7054B196800F0A6FCF3
:1061700001E700BFCD970020D4970020E0970020D2
:10618000C4970020DC970020CC970020CA970020FD
:10619000C897002018DF7047012973B514460D46D3
:1061A0001A4608D0032912D014B3204602B0BDE825
:1061B000704001F091BB0F4B1B78052BF4D10E4BB7
:1061C0001B68002BF0D0214604209847ECE7094ECD
:1061D0003378022BE8D1094B01925B689847064B54
:1061E00035701B68002BDFD0019A21462846ECE76A
:1061F00002B070BDEC970020E4970020F0970020DB
:1062000030B589B003AC142200212046FEF7C8F84F
:10621000094B1B88ADF80E30084BDB680693002550
:10622000079B8DF80C50009394E80F00FFF77CF863
:10623000284609B030BD00BFFC97002048980020D8
:1062400000B589B003238DF80C300A4B1B88ADF8DC
:106250000E30094B5A6804929A68DB680693079BD4
:106260000093059203AB0FCBFFF75EF8002009B057
:106270005DF804FBFC9700204898002000B589B029
:1062800001238DF80C300F4B1B88ADF80E3043F214
:1062900004031A680C4B9A420ABF43F208034FF4F6
:1062A00080521A68094B596804919968DB68069313
:1062B0000591009203AB0FCBFFF736F8002009B031
:1062C0005DF804FBFC970020DBE5B1514898002005
:1062D00000B589B003AB142200211846FEF760F820
:1062E00004228DF80C20002200920FC8FFF71CF842
:1062F00009B05DF804FB00001A4BF7B51A4C1C609E
:106300001A4B02221A70FEF74BFA194B48B1196862
:10631000204600F007FF10B303B0BDE8F04001F0E5
:10632000DBBA1D68134F013D2D0B0135044643F2C6
:1063300004063368BB420ABF43F208034FF480509F
:10634000186800EB04300134FEF7AEFDA542F0D82A
:106350000023054800931A460321FFF71DFF03B0F1
:10636000F0BD00BF6098002058980020EC970020F6
:1063700000980020DBE5B15170B50C4686B00321D2
:10638000CDE902100546960802A8019304940596EB
:10639000FFF700FFE0B1B4F5805F019B11D8012346
:1063A00002A8CDE90235CDE90446FFF7F3FE78B93E
:1063B000032302A8CDE90235CDE90446FFF7EAFE42
:1063C00006E01A46E11AE81AFFF7D6FF0028E6D0E1
:1063D00006B070BD1FB5134B0193134B1349002436
:1063E0001C70134B01A81C80CDE9024400F078FE1C
:1063F000104B10B11C7004B010BD43F204021168C0
:106400000D4A914208BF43F2080208490CBF1268C6
:106410004FF480524A60094A0021116001221A702B
:10642000E9E700BF996107004498002058980020D0
:10643000FC970020EC970020DBE5B151E8970020A5
:10644000014B1860704700BFE497002010B5436807
:10645000224C0FCB84E80F002278500701D591071A
:1064600035D16068830732D1A36899072FD1E168DD
:1064700011F003042BD1184408441949B3F5204FF7
:10648000086026D843F204031968164B994209BFE5
:1064900043F208034FF4D8231B68C3F5DA2398426C
:1064A00017D8114B1149196011495960D10709D505
:1064B000104A9A60104B1B78012B0CD1FFF71CFF80
:1064C000204610BD92074CBF0C4A0D4AF1E7062446
:1064D000F6E70C24F4E70824F2E700BF4898002010
:1064E00000980020DBE5B151F0970020F962070029
:1064F000D16207007D620700EC970020416207002F
:10650000016207002DE9FF47002859D0816811F08A
:10651000030457D12E4B1B78052B55D1DFF8BC80D7
:1065200042682C4ED8F80030950003EB82033268A5
:1065300093424746B24608D94FF0FF33C8F80030BF
:106540000C24204604B0BDE8F0870391FEF728F93B
:10655000DFF88C90039948B1D8F80030D9F80000E2
:106560002A4600F0CFFDE8B10446EAE743F204030F
:10657000D8F800601A68184B9A420ABF43F2080321
:106580004FF480501868039100232A463044FEF7E8
:10659000A5F80399D9F8000000950B4600220121C7
:1065A000FFF7FAFD3B681D44DAF800303D609D427C
:1065B0000CD1FEF7F5F80028C3D1FEF771F8C0E75B
:1065C0000E24BEE71024BCE70824BAE70924B8E784
:1065D000EC97002000980020DBE5B151E8970020FF
:1065E0006098002070B50B4B1D6885B90A4E337852
:1065F000042B0CD1094C0A4B21781A780948FEF774
:1066000005F810B90523337070BD2570FCE708202C
:10661000FAE700BFE8970020EC970020449800209C
:106620004898002004980020F8B5114B1A78032AE6
:1066300003D0042A03D0082416E004221A700D4B5C
:106640001C68002CF7D10C4D43682F789E0007EB97
:106650008303402B0AD8816808483246384402F048
:106660000DFB2B7833442B702046F8BD0924FBE743
:10667000EC970020E8970020449800200498002020
:1066800010B50B4C2378052B10D10A4B0A4A1B6816
:10669000116899420AD106232370084B1B68586879
:1066A000FDF7EEFF08B90723237010BD0820FCE7B3
:1066B000EC97002000980020E897002060980020C8
:1066C000044B1B78072B02D1034B9B68184708200B
:1066D000704700BFEC970020F097002000B589B00C
:1066E00006238DF80C30079B009303AB0FCBFEF70E
:1066F0001BFE09B05DF804FBF0B58DB005A8FEF7F0
:1067000075FF089C002C3ED00B9E04F58053B342CD
:106710002DD91E4BA6F5805503EA550543F2080313
:106720001B689C420BD869002B46A4EB450201F57F
:10673000805106EB4500FFF71FFE0DB0F0BD05F5DB
:106740008053012701A8CDE90173CDE90337FFF795
:1067500021FD0028F1D14FF4805301A8CDE9023387
:1067600001970497FFF716FD0028E6D1DBE7012328
:10677000CDE90136A4084FF4805301A80393049493
:10678000FFF708FDD9E72046D7E700BF00F0FFFF7D
:1067900000B58DB005A8FEF729FF099890B1089BB8
:1067A0009BB943F204031A680B4B9A4210D143F28F
:1067B00008031B6880080022039001A8CDE901238B
:1067C000FFF7E8FC0DB05DF804FB0B9A1344F1E70A
:1067D0004FF48053EEE700BFDBE5B15100B58DB05B
:1067E00005A8FEF703FF0998A8B1089BB3B943F2C7
:1067F00004031A680C4B9A4213D143F208031B6836
:106800000393800803214FF4E822049001A8CDE906
:106810000112FFF7BFFC0DB05DF804FB0B9A1344A7
:10682000EEE74FF48053EBE7DBE5B15110B58CB0E8
:1068300005A8FEF7DBFE0898B8B10B9C00F5805365
:10684000A34214D943F208031B6898421BD80F4B8C
:10685000A4F5805203EA52035900A0EB430201F56C
:10686000805104EB4300FFF787FD0CB010BD80089A
:1068700003224FF48053049001A8CDE9012303942F
:10688000FFF788FCF1E70E20EFE700BF00F0FFFF05
:10689000A8DF7047AADF7047ADDF7047AEDF7047F3
:1068A000B0DF704762DF70472DE9F0470E4694B0C5
:1068B0000546002800F0FC80002900F0F9804B68B4
:1068C000002B00F0F5804FF6FF7303800023ADF836
:1068D0000A30784B04AA03F1100C1746186859685F
:1068E000144603C4083363452246F7D141F23053BE
:1068F0000DF10A013846ADF80830FFF7D3FF044622
:10690000002840F0D1802A1D02A90120FFF7C0FF16
:106910000446002840F0C8809DF80A30AB7101465B
:106920001C220DA8FDF73CFD9DF834300E9443F079
:1069300004038DF8343001AFAB798DF80E30214669
:1069400041F2325303223846CDE91044CDE91244D6
:10695000ADF80C30FDF724FD9DF8063023F01F0341
:1069600043F00303214614224FF4885A08A88DF8F7
:106970000630ADF804A00DF10C08FDF711FD4FF045
:106980001409A8880A9405F1080308AA0DA90C9413
:10699000CDE90887ADF82C90FFF77CFF044600286E
:1069A00040F0828001461C220DA8FDF7F9FC9DF8FD
:1069B00034300E9423F0180343F018038DF834306C
:1069C000AB798DF80E30214641F23153032238461F
:1069D000CDE91044CDE91244ADF80C30FDF7E0FCF0
:1069E0009DF80630ADF804A023F01F0343F0130315
:1069F00021464A4608A88DF80630FDF7D1FC17233A
:106A0000ADF82C30A8880A9405F1100308AA0DA946
:106A10000C94CDE90887FFF73DFF0446002843D1D9
:106A200001461C220DA8FDF7BBFC9DF834300E94E6
:106A300043F002038DF83430AB798DF80E302146E7
:106A400041F2345303223846CDE91044CDE91244D3
:106A5000ADF80C30FDF7A4FC1123ADF804309DF81F
:106A6000063023F01F0343F0030321464A4608A8DB
:106A70008DF80630FDF794FC02230A93ADF82C3014
:106A8000A8880C9605F1200308AA0DA9CDE908876E
:106A9000FFF700FF044638B97368AB62B36803B10F
:106AA000EB62054B01221A70204614B0BDE8F08756
:106AB0000E24F9E7339207006498002070B505466C
:106AC00086B070B302884FF6FF739A422BD0174BF3
:106AD0001B7843B3164C1022080AE170207121FA8A
:106AE00002F0090E072301266071A17102A800219E
:106AF0006370ADF806302270A670FDF751FC2B8A4A
:106B0000ADF808300023ADF80C3028888DF80A6005
:106B10000DF1060302A9CDE90434FFF7BFFE06B06C
:106B200070BD0E20FBE70820F9E700BF6498002045
:106B30006598002030B5044687B060B302884FF6F0
:106B4000FF739A4229D0164B1B7833B3154D11238E
:106B50002B700B0A6970AB700B0C090EEB7029716E
:106B600005230021102202A8ADF80630FDF718FC1D
:106B7000238AADF8083001238DF80A300023ADF8E0
:106B80000C3020880DF1060302A9CDE90435FFF78A
:106B900085FE07B030BD0E20FBE70820F9E700BFF7
:106BA000649800206598002030B5044687B038B35B
:106BB00000884FF6FF73984224D0134B1B780BB319
:106BC000124D102369700321ADF80610AA70002140
:106BD0001A4602A82B70FDF7E3FB238AADF80830B4
:106BE00001238DF80A300023ADF80C3020880DF118
:106BF000060302A9CDE90435FFF750FE07B030BD0A
:106C00000E20FBE70820F9E7649800206598002033
:106C100070B50D4688B0044650B149B1826A3AB1A8
:106C20000B88502B47D005D8102B41D0112B52D0B8
:106C300008B070BD512BFBD18E79022EF8D10A8994
:106C4000038A9A42F4D18B7B043B022BF0D99DF846
:106C500016308DF8106043F001038DF816300B8A62
:106C6000ADF818304B8AADF81A30082201F1140340
:106C700001A800210793FDF793FBA18A20880196C4
:106C800001AACDF808D0FFF707FE38B3E36A03B1D5
:106C9000984740F2FD132088ADF8143004A9FFF79F
:106CA000FFFD0028C4D0E36A002BC1D09847BFE79E
:106CB0008B882380BCE7C98803899942B8D108230F
:106CC0008DF81030123535F8023C8DF818300595E6
:106CD00004A99047ACE74FF6FF73EAE79DF8003050
:106CE0002088DB07D5D5002604A9ADF81460FFF78E
:106CF000D7FD0028D7D1297D4B1E072B40D8DFE8D0
:106D000003F004192226282A3D2C6B8A8DF8046092
:106D1000012B05D8062201212046FFF745FFC0E7D9
:106D2000012315358DF80C300295A36A01A9204680
:106D300098477DE76A8A01239A428DF80430F0D89B
:106D400006220221E8E702238DF80430EDE7032351
:106D5000FAE70423F8E70523F6E76B8A022B02D84B
:106D600003220821D8E7AA7D6B7D43EA0223002B8A
:106D7000ADF808300CBF07230623E5E70923E3E756
:106D80000322C9E7A8DF7047AADF70472DE9F04169
:106D900080468EB015461F460E4611B9084600F0D3
:106DA0009BFD15B9284600F097FD1C220DEB020053
:106DB0000021FDF7F5FA9DF81C30ADF804800024A1
:106DC00043F002038DF81C3021460123032268465C
:106DD0008DF80630CDE90A44CDE90C440894FDF75E
:106DE000DFFA3B788DF800307B788DF801309DF824
:106DF000023023F01F0343F002032146142202A8AD
:106E00008DF80230FDF7CCFA0A48CDF80CD001AB72
:106E1000029302AA149B0088ADF8105007A9ADF8A0
:106E20001240ADF814500696FFF7AEFF0EB0BDE865
:106E3000F08100BF8C98002030B587B041F60A037E
:106E40002B4AADF80C30044603A901208DF80E0042
:106E5000FFF798FF0546D8B92288E2B922894AB1DE
:106E6000244B0093E16804F13C0342F62420FFF731
:106E70008DFFD8B9228C4AB11F4B0093616A04F18F
:106E80003C0342F62620FFF781FF78B9A36B7BB95C
:106E9000284607B030BD194B0093616804F13C03EC
:106EA00042F62920FFF772FF0028D7D00546EFE70A
:106EB0001A788DF810205A888DF81120120A8DF852
:106EC00012209A88DB888DF815301B0A8DF8132064
:106ED0008DF81630120A0A4B8DF814200093072201
:106EE00004F13C0304A942F65020FFF74FFFDDE711
:106EF0008C9800207C9800206C98002074980020CA
:106F00008498002029DF704728DF704723B50246A8
:106F10000846C96843680093044B53F821504369FD
:106F200010F80C1BA84702B020BD00BF90980020AD
:106F300070B5194C2378182202FB03431A795D6956
:106F4000012A03D0032A1AD00F2070BD134AD86833
:106F500016689A689969A2EB0632B2F5805F2844F8
:106F600001EB063100EB063034BF92084FF480622B
:106F7000FFF7C8FF0028E8D10123A370E5E74FF031
:106F800080531869054B1B6880B2B5FBF0F01844BC
:106F9000FFF7BAFFEEE700BFA09800209899002005
:106FA00070B5134D6C780A2C1FD02E783444E4B29F
:106FB000092C84BF0A3CE4B2182606FB0454A261E3
:106FC000207103C9A360049BE360AB7804F1100255
:106FD00082E8030023B100206B7801336B7070BD31
:106FE000FFF7A6FF1128F7D1F5E70420F7E700BF68
:106FF000A0980020F8B527498B780C462BB10026C5
:1070000002288E7002D003283AD0F8BD0D78224AAB
:10701000182101FB0541136889680133B1EB033F77
:1070200013601BD863781660013B63706B1CDBB286
:1070300018270426092B17FB056188BFA5F1090352
:10704000214400202370FFF761FF07FB0543002266
:10705000C3E904621A719A609A61DA606378002B5E
:10706000D3D0A378002BD0D1FFF762FF0028CCD07B
:107070001128CAD02178182303FB0141043105E00F
:107080000B78182202FB031104310D20BDE8F840F3
:10709000FFF73CBFA0980020989900200C4B0022DD
:1070A0001A600C4B0A201A809A7004210138C3E937
:1070B00004121A719A609A61DA6003F11803F5D12B
:1070C000054B1860054BC3E90000C3E90200704797
:1070D00098990020A0980020949900209098002072
:1070E000064A03461068042807D00860411C116056
:1070F0001A68034B43F82020002070479499002021
:107100009098002013B5CC180C43A40708D1009325
:1071100013460A4601460120FFF742FF02B010BDA8
:107120001020FBE707B500220B4600920146032022
:10713000FFF736FF03B05DF804FB0000094A5378FF
:1071400091780133DBB2994208BF0023117899424C
:107150001FBF03705078182303FB002014BF0430B6
:10716000002070479C990020082910B5044602D0E1
:10717000002000F0B1FBD4E90030BDE81040184712
:1071800073B5054600240DF107000E468DF8074043
:1071900000F0B0FB0DF10600FFF7D0FF90B10670D4
:1071A000094B9DF8062045605A709DF8070000F0D5
:1071B000C5FB24B9054B4FF48012C3F800212046CB
:1071C00002B070BD0424F0E79C99002000E100E0CB
:1071D000204B21491A682F2300BF00BF00BF00BF0A
:1071E00000BF00BF00BF00BF8A422FD000BF00BF5A
:1071F00000BF00BF00BF00BF00BF00BF00BF00BF97
:1072000000BF00BF00BF00BF00BF00BF00BF00BF86
:1072100000BF00BF00BF00BF00BF00BF00BF00BF76
:1072200000BF00BF00BF00BF00BF00BF00BF00BF66
:1072300000BF00BF00BF00BF00BF00BF00BF00BF56
:1072400000BF00BF00BF00BF00BF00BF013BC3D1F4
:10725000704700BF388400200024F4000C4B0D4818
:107260004FF4003210B5C3F8802001244FF480336E
:10727000C0F84833C0F808334460FFF7A9FF064B55
:10728000846000201860FFF7A3FF044B187010BD46
:1072900000E100E000100140B89A0020A99A002007
:1072A0002DE9F3412549264B0025C1F84051C1F88D
:1072B0004451C1F84851C1F84C51C1F80051C1F8CE
:1072C00004511B68002B34D0D1F804451D49DFF868
:1072D00088800968641A24F07F442F461968A14207
:1072E00012D81A7CDE69641A0D4462B15A691F749F
:1072F00000929B69019342460821684600F056FAC5
:1073000008B100F0E9FABEB90F4A104B11781B78AA
:107310008B4205D10133DBB2022B08BF002313706F
:1073200012780B4B43F822500A4B4FF48012C3F8EB
:10733000002102B0BDE8F0813346CFE700100140E4
:10734000BC9A0020B89A0020B59A0020B49A002078
:10735000AC9A002000E100E0697107002DE9F74FC9
:10736000A84AA94913780978A84C99423BD001331F
:10737000DBB2022B08BF00231370A5491278A54B7E
:107380000F6853F822003B1823F07F4300220B6064
:10739000236815461646944613B942B1236006E0A9
:1073A000196881420DD902B12360091A19600126BA
:1073B0002368DFF8689200930027BDB9DFF868A260
:1073C00067E0401A0E44D968D3F81CE0C3F800C047
:1073D00031B1BA1922F07F42C3E90121DD611D46B6
:1073E00073460122D8E700252E46E1E72846ED69DD
:1073F000874A43681268DFF834E2D0F808C0991A67
:1074000021F07F41714500F2AD80614401600122AD
:10741000027422680023C0E90133C361002A40F0EE
:10742000AB802060C9E75A1C9AF80210D4F800B06B
:10743000D2B291428AF8002004BF00228AF80020CC
:10744000182202FB03A31A799868022A77D0032A2C
:1074500000F08580012A1CD190F810C0BCF1000F0B
:1074600017D1D96841601A6982605A69C2609B6904
:107470008361694B1B78002B18BF61464160B7E7F9
:10748000904200F09E809046D269002AF8D10023F5
:1074900003749AF800309AF801209A42C3D1236805
:1074A00027B9009A9A4201D1002E42D0002B00F059
:1074B0008580D3F80090594C554BD4F80465186872
:1074C000574F351A3B7825F07F4503359BB94FF46C
:1074D0008033C4F84433C4F80433524B4FF40032C1
:1074E0004FF00108C3F880211A60C4F80080FFF74C
:1074F0006FFE87F80080A9452CBF4844401920F052
:107500007F40C4F84005D4F804359B1B23F07F432B
:10751000801B033320F07F4083420AD9D4F804351E
:10752000C4F84035FFF754FE3E4B4FF40032C3F829
:107530000021394B00221A7003B0BDE8F08F5A4683
:10754000D846A2E78BF81020DBF81CB00123BBF172
:10755000000FF7D1002B9CD0C4F800B099E70023AE
:107560001A46F4E7D31A23F07F43634534BFACEBEC
:107570000303002303604AE70168136899421BD89C
:10758000591A1160C2614CE7A1EB0C01D3F81CC081
:107590001A46BCF1000F0AD06346D3F800C08C45F0
:1075A000F2D3ACEB010CC3F800C09C46134601605B
:1075B000C0F81CC0D86100E71346EEE7FFF74EFEA7
:1075C000B7E7404510D1DBF81C30236063B9DFF822
:1075D00040E001920121C9F80810CEF800300E4BAE
:1075E0001970FFF7F5FD019A1368D269C8F81C20DD
:1075F00012B111680B44136023685B4518BF012763
:1076000045E700BFB49A0020B59A0020BC9A00203C
:10761000B89A0020AC9A0020A89A002000100140DF
:10762000A99A002000E100E09C990020FEFF7F0065
:1076300008B5FFF713FE104B00200B2218809A703C
:107640000E4B18600E4B18700E4B18700E4B4FF40B
:107650008012E021C3F8802183F814131A6002F12C
:107660008042A2F56F22C2F8080583F81113074B78
:10767000D2F804251A6008BD9C990020BC9A00200D
:10768000B49A0020B59A002000E100E0B89A0020EA
:10769000074B9B784BB132B128B10368187C20B9F5
:1076A00059745A617047072070470820704700BF1F
:1076B0009C9900202DE9F743DFF8848098F8023088
:1076C00005460E461746ABB3A0B3042930D943692B
:1076D00083B3437C0024012B0DF107000CBF8946C6
:1076E000A1468DF8074000F005F90DF10600FFF7FF
:1076F00025FDD8B1012303700F4B4560D3F8043545
:10770000C0E90497C0E902369DF8063088F80130D8
:107710009DF8070000F012F924B9084B4FF48012CD
:10772000C3F80021204603B0BDE8F0830424EFE74E
:107730000724F7E70824F5E70010014000E100E026
:107740009C990020064A92783AB130B1426922B140
:10775000002202740221FFF713BD0820704700BF0A
:107760009C9900204B1C30B5DB00044612F003004E
:107770009BB20DD1074D2A601A44074B1A60074B84
:107780001870074B1870074B1C80074B198030BDD1
:107790000720FCE7C89A0020C49A0020C09A002065
:1077A000D09A0020CC9A0020CE9A00202DE9F347F1
:1077B0002B4F3B888B4206460D4690464BD3002408
:1077C0000DF107008DF8074000F094F8254B26488E
:1077D0001A78264B008893F800C084455FFA8CF134
:1077E00038BF4C1CD2B238BFE4B2A2422DD01C78B4
:1077F0001A78D1B2904286BF0131C9B20021197006
:107800009DF8070000F09AF84FF6FF739C4224D0D1
:10781000DFF86090D9F800204FEAC40A42F83480BB
:1078200002EBC403A6B19DB1114B38881B682A46F0
:1078300004FB0030314601F021FAD9F800305344FE
:1078400000209D8002B0BDE8F0874FF6FF74D7E7B7
:1078500000209880F6E70920F4E70420F2E700BF53
:10786000CC9A0020D09A0020CE9A0020C09A002006
:10787000C49A0020C89A0020F8B5114C114D264634
:1078800022782B789A4200D1F8BD0F480F4A23780E
:10789000126807880E4802EBC301006852F83320D3
:1078A000898803FB070090470A4922780988D3B2E8
:1078B000914286BF0133DBB200233370E0E700BFA3
:1078C000D09A0020C09A0020CC9A0020C89A0020AC
:1078D000C49A0020CE9A00201FB50021CDE90210E5
:1078E00001AA44F20100ADF80410FCF74FFF05B007
:1078F0005DF804FB70B5EFF3108672B60C4A94681D
:1079000001239CB993600B4B0B4DD3F88010294099
:107910001160C3F88050D3F8841051604FF0FF32EB
:10792000C3F88420047006B962B670BD0370FAE72C
:1079300070AE002000E100E0FC06FFBD10B5084B72
:107940009A685AB150B9EFF3108172B6054A1C68B3
:1079500014605C685460986001B962B610BD00BFE5
:1079600070AE002000E100E010B5044622B110889E
:1079700021448C4203D110BD4FF6FF70F8E743BAA3
:1079800014F8010B9BB24340C3F30312534083EA44
:1079900003335A0102F4FF529BB283EA0200E8E784
:1079A000064B074A00201870064B1A600822C3E9EC
:1079B0000120C3E90300C3E905007047D19A002004
:1079C000D49A0020B4AD00200020704730B5F9B142
:1079D000124B5C6800220A60E4B1B0F5167F1BD838
:1079E000D8681D680130013CD86018695C604FF4AC
:1079F000177404FB00540C60012101FA00F499692A
:107A0000013000F00700214318619961104630BD34
:107A10000E20FCE70420FAE70C20F8E7B4AD0020C4
:107A2000F0B51C4B996899B35D691E686C1A04F037
:107A3000070422464FF4177707FB026C604511D10B
:107A4000012000FA02F598696840986100205E689C
:107A5000D3F818C04FF0010E724400250E4402F016
:107A600007020AE0013202F007029542E4D1102039
:107A7000EDE749B10139144601250EFA04F414EA80
:107A80000C0FA6EB0107F4D00DB1C3E90171F0BDF5
:107A90000420FCE7B4AD0020064A13691268013BDC
:107AA0004FF4177103F0070301FB0323C3F85802D7
:107AB00000207047B4AD002030B5C0B1B9B10E4B55
:107AC000DA68B2B1013ADA609A681D6801329A60E8
:107AD0005A694FF4177404FB025404600132D4F85D
:107AE0005802086002F007025A61002030BD0E20E3
:107AF000FCE70420FAE700BFB4AD00203FB40C4916
:107B0000086890B10B4B1C687CB10B4A1568CDE935
:107B1000025000238DF804300B60136004AB13E9AE
:107B20000700234604B030BC184704B030BC70478F
:107B3000D8AD0020DCAD0020E8AD0020DC2810B579
:107B400009D0DD2810D0C02816D1FFF7D7FF0E4B83
:107B50000E4A1A6010BD0E4A0E4B19681368581C65
:107B60001060C022CA54F2E7094A0A4B1968136828
:107B7000581C1060DB22F5E7064B054A19681368AC
:107B80005C1CC8541460E2E744840020C97B0700F1
:107B9000D8AD0020E8AD0020C02802BF014B024A4A
:107BA0001A60704744840020C97B070008B5DB20B9
:107BB00000F0D4FB10B9024B024A1A6008BD00BFA6
:107BC00048840020657D0700C02810B409D0DB2858
:107BD0000BD0094B094A196813685C1CC85414601F
:107BE00006E05DF8044BFFF789BF054B054A1A60B4
:107BF0005DF8044B704700BFE8AD0020D8AD002011
:107C0000448400203D7B070010B5064A064C1268EC
:107C10002368D05C00F0A2FB10B923680133236015
:107C200010BD00BFECAD0020E0AD002008B5C020C5
:107C300000F094FB28B9034B1B6813B9024B034AAD
:107C40001A6008BDE0AD002048840020097C0700D0
:107C50007FB51C4C1C4E1D4D226833689A4219D3C7
:107C60001B4B2B60FFF7E2FF002829D1194B0122A3
:107C70001A70194B1B681BB38DF80420174A126841
:107C800002922268039204AA12E9070004B0BDE838
:107C900070401847114B22681B689A5CC02A03D0B9
:107CA00022689B5CDB2B05D10D4B2A689A4204BFEE
:107CB0000C4B2B602B689847042801D01128CBD19E
:107CC00004B070BDE0AD0020E4AD00204884002089
:107CD0002D7C0700D0AD0020DCAD0020ECAD0020F5
:107CE000097C0700AD7B07001FB50378032B044612
:107CF00005D1164B1B78022B25D1FFF7A9FF23785E
:107D0000042B20D1124B1A6862B1124B1968124B26
:107D10001B68994206D2114B20791B6804B0BDE85C
:107D2000104018470E4B1B686BB10292094A0221A2
:107D3000126803928DF8041004AA12E9070004B037
:107D4000BDE81040184704B010BD00BFD0AD002002
:107D5000E8AD0020D8AD0020D4AD00204484002040
:107D6000DCAD002010B50C4A0C4C12682368D35CC3
:107D7000C02B03D0DB2B0DD0042010BDDC2000F085
:107D8000EDFA0028F9D12368054A01332360054B39
:107D90001A60F2E7DD20F2E7ECAD0020E0AD002054
:107DA000097C070048840020014B186000207047C0
:107DB000DCAD0020F0B50C4E377887B097B90B4D8D
:107DC0000FCD6C460FC495E80300094A84E8030010
:107DD00007233946684600F073FA08B90123337067
:107DE00007B0F0BD0020FBE7D0AD002044920700B3
:107DF000E97C0700024B00221A7000F0C3BA00BFF2
:107E0000D0AD002010B5C0B10D4B1A78012A04D0B6
:107E1000022A14BF0820042010BD0A4A002414605E
:107E2000094A1160094A106002221A70084B094A77
:107E30001A60FFF70DFF2046EEE71020ECE700BFC9
:107E4000D0AD0020E0AD0020E4AD0020ECAD00207E
:107E5000488400202D7C0700054B064A1860064B1D
:107E60001960064B00201860054B1A60704700BF70
:107E7000E8AD0020997B0700D4AD0020D8AD0020EC
:107E800044840020064B07481B68DB00DBB200225D
:107E9000037004215B4242708270C370FFF7B2BF6F
:107EA00018AE0020F0AD002070B52C4C2C4E0246D0
:107EB00025462378012B14D0022B21D0002B4CD146
:107EC000002A4AD12748FFF73DFC08B1FFF704FD1F
:107ED000254B1B68002B40D0244ABDE87040107829
:107EE0001847012A39D13168214B06311868FFF74C
:107EF00089FF08B1FFF7F0FC02232B700022D8E7BE
:107F0000022A17D0032A0CD03ABB1A4B15481A6024
:107F100041F67F21FFF7CEFBF8B1BDE87040FFF7D7
:107F2000DBBC154A1368013303F007031360002319
:107F30002370E3E70F4A1368052B0AD0013313605F
:107F4000074B19680A4BBDE8704018680631FFF707
:107F500059BF064B01221A70E9E770BD3CAE002004
:107F600030AE0020F4AD00202CAE002034AE002056
:107F700044AE002038AE00201CAE0020F0B585B025
:107F800004AB03E907009DF80400032878D8DFE874
:107F900000F00802A7AA012005B0BDE8F040FFF7F5
:107FA00083BF039E564C032E40F28680029D6B7861
:107FB00013F00F0269D00E2A7ED1042E59D02A78F0
:107FC000500656D5110654D51A44AB781A44EB78AE
:107FD0001A4412F0FF024CD1B71E39462846FFF76B
:107FE000C3FCEB195A78EB5D43EA0223984240D177
:107FF00044492A780B6802F00702D8B282422BD19A
:10800000013303F007030B60FFF73CFF3E4B0122F7
:1080100030461A70FFF740FD08B1FFF75DFC3849A4
:108020004FF41670FFF7D2FC002862D0042802D06B
:108030000020FFF751FC35480521FFF70DFF08B17F
:10804000FFF74AFC324B1B68002B56D04FF0000064
:1080500005B0BDE8F040184720684FF41671FFF7EF
:10806000FBFE08B1FFF738FC05B0BDE8F040FFF7B4
:1080700009BF20684FF41671FFF7EEFE00283CD0D0
:1080800005B0BDE8F040FFF727BC2978AA780B447B
:108090001344EA78134413F0FF030DD11D4A12680C
:1080A0000132C1F3C20102F00702914204D11A4A1F
:1080B00003201370FFF7F8FE25681DB14FF4167109
:1080C0002846D9E70E494FF41670FFF77FFC60B1E0
:1080D000042802D02846FFF7FFFB0C480521CBE718
:1080E0000A480521C8E70320CAE720684FF4167143
:1080F000C2E720684FF416719FE705B0F0BD00BFDE
:1081000040AE002018AE002014AE002020AE0020AB
:1081100028AE00201CAE002034AE00200220FFF765
:10812000C3BE0000074B10B5044618600648FFF7B1
:108130003BFE08B1FFF7D0FB002C0CBF0E20002047
:1081400010BD00BF28AE00207D7F0700184A1948E7
:10815000002310B51360184A1360184A1360184AB8
:108160001370184A1370184B184A01211960184BE4
:108170001960184B1970FFF78BFA08B1032010BD76
:10818000FFF70EFC0028FAD1FFF714FE0028F6D105
:10819000114C4FF416702146FFF718FC0028EDD162
:1081A00020684FF41671BDE81040FFF755BE00BFC0
:1081B00044AE00205C92070030AE002038AE0020B4
:1081C00014AE00203CAE002018AE00201D81070038
:1081D0001CAE002034AE002040AE00200C4A08B592
:1081E000002313600B4A1360FFF7EEFB08B1FFF7A3
:1081F00073FBFFF7FFFD08B1FFF76EFB0648FFF7C3
:10820000A1FA042802D10020FFF766FB002008BD78
:108210002CAE002028AE0020F4AD002037B50D466E
:10822000044698B191B10A4B19780022019259B1D4
:1082300001A91A70FFF740FC019B063B2B802368C5
:108240000433236003B030BD0420FBE70E20F9E7C0
:1082500014AE00200438FFF7E3BB000013B5047828
:10826000012C13D104238DF80030436810491B788A
:1082700010488DF80430224600F0C4FA0E4B1C70F2
:108280000E4B68461B68984702B010BD022C09D1FE
:10829000C368074907488DF800400122019300F0A8
:1082A000B1FAEDE7002CEFD103238DF80030E7E7BA
:1082B0004CAE00204C8400204DAE002048AE002083
:1082C000F0B5204E044617469C460FCE89B06D4649
:1082D0000FC596E80F0085E80F0063690693237CBD
:1082E0008DF81CC0003B18BF01238DF81430637C4F
:1082F0001548002B14BF0E2300238DF81530E368BA
:108300000293A368039323680193636800930F4B60
:108310001F600F4B00221A7069460E4A00F0A4F845
:1083200068B9236801330AD09DF81D3013B9064897
:1083300000F02CFB08490448012200F063FA09B060
:10834000F0BD00BF609207004C84002048AE0020C2
:108350004DAE00205D8207004CAE0020074908B5F5
:1083600001220870064800F0C9F9112803D000283E
:1083700018BF032008BD0420FCE700BF4EAE00205C
:108380004C84002008B5024800F038F9002008BDF0
:108390004C8400200023435082B043580193019B3A
:1083A00002B070470023435082B043580193019BB1
:1083B00002B070470A4610B54FF48E71FFF7EAFF1E
:1083C000938A91689BB2C95C938A01339BB2938272
:1083D000C0F81C1510BD1FB5002382688DF8003051
:1083E0008DF8081083750192D0E90013684698470C
:1083F00005B05DF804FB08B502464FF492710068C1
:10840000FFF7C8FF4FF484711068FFF7C3FF1368CC
:1084100001221A6008BD10B5CB7D0A464FF4847165
:1084200023B9FFF7B7FFD0F8183510BDFFF7B2FF3B
:10843000537ED168D0F81805C854537E0133DBB29F
:108440005376F2E71FB501238DF80030054B8DF808
:10845000080001916846D3E90012904705B05DF825
:1084600004FB00BF50AE0020F8B5614D03795E01FA
:1084700005EB43130446D87E002840F0B680487FC1
:1084800018770868431C0BD0012383404FF0A040AD
:108490000327C0F808350B6803F5E07340F8237034
:1084A0004B685F1C1FBF03F5E0734FF0A04000272F
:1084B00040F82370487D0B7D2768D1F818C003432E
:1084C000207905EB4010007FC7F824C5002867D04D
:1084D0002068C0F86C35D1E900702368C3F80C75CA
:1084E000C3F814050B7D012B1FD18B68581C06D0D7
:1084F00003F5E0734FF0A040002740F82370C868F0
:10850000431C0BD0012383404FF0A0400327C0F849
:108510000835CB6803F5E07340F82370D1E9020712
:108520002368C3F80875C3F81005AB195A600B69C6
:10853000AB5122B323790A7F206805EB43131B7FDD
:10854000002B44D04FF48871FFF72CFF20684FF4C4
:108550009071FFF727FF20684FF49271FFF722FF19
:108560004FF4A2712068FFF71DFF23682149C3F86B
:1085700004132068114640F3073000F00BFB237909
:10858000226805EB43131B7F6BB308233544C2F805
:10859000003500204FF480732876E8826B83F8BDA5
:1085A0002768C7F86C35D1E900C72368C3F814758C
:1085B000C3F80CC50B7D012BB7D18B685F1C1EBFA8
:1085C00003F5E0734FF0A04747F8230097E74FF417
:1085D0008E71FFF7DFFE4FF4A2712068FFF7DAFE1D
:1085E00023680549C3E70423D0E70820D7E700BF85
:1085F00050AE00201003020080000200F0B53B4A9C
:10860000037901685F0102EB43131B7F03B1002371
:10861000C1F80035D3195B68B3B10379016802EB87
:1086200043131B7F002B53D0314BC1F80833016833
:1086300041F3073301245B09C1F3043104FA01F16A
:1086400020332C4C44F823100179036802EB4111CC
:10865000D3F80C65097FD3F8145500293AD04FF0B0
:10866000FF3CD3F80815D3F81045C3F80CC5C3F880
:1086700014C50368C3F808C5C3F810C5731C1FBF31
:108680004FF0A04306F5E076022043F826006E1C6A
:108690001FBF4FF0A04305F5E075022043F8250009
:1086A000601C1FBF04F5E0744FF0A043022043F8A4
:1086B00024004B1C1CBF4FF0A04301F5E0713A446D
:1086C0001CBF022043F821000023D3765360F0BD85
:1086D000094BAAE74FF0FF3CD3F80815D3F8104533
:1086E000C3F814C5C3F80CC5C3E700BF50AE0020E3
:1086F0001003020000E100E0840202002DE9F041D5
:108700003F4E05790446680106EB45152D7F25B1DE
:1087100001F06043B3F1005F6ED13318987D0028FB
:108720006CD19A7599609882277906EB47154FEAC4
:1087300047182B7F53B320684FF49071FFF732FE38
:108740004FF4AC712068FFF72DFE2368AA7DA9685D
:10875000C3F84415C3F84825236801229A606B6862
:1087600013B10020BDE8F0812368D3F82021D3F8AD
:1087700058011AB90028F8D00F2002E0002818BFCD
:108780000F2006EB080300229A75EBE720684FF4F0
:108790008E71FFF7FFFD236801229A6006EB4717F1
:1087A00020683946FFF706FE6B68002BD9D1A97DFA
:1087B000AB8A9BB28B420DD3AB8A9BB2B3F5807F61
:1087C000DAD02368D3F81C21002AFBD00122DA601A
:1087D0000020D6E72068D0F81C3123B9AB8A9BB2C1
:1087E000B3F5807FF7D1AB8A9BB2B3F5807FDFD042
:1087F0003946FFF7DFFDDAE71020B3E71120B1E7D4
:1088000050AE00202DE9F8435F4E0F4601794B0131
:1088100006EB411105460C7F2CB107F06041B1F128
:10882000005F40F0AD80F118496829B12868C4B1F3
:108830004FF40474C0F808433344DC7DBCB1187EA7
:10884000002850D049B12B792A6806EB4316337FB4
:1088500053B14FF40473C2F8043311242046BDE829
:10886000F8834FF40174E5E74FF40173F3E7DA7529
:10887000DF605C761C7695F8049006EB49134FEAAE
:108880004918197F00293FD028684FF48871FFF7F5
:1088900089FD28684FF4A271FFF784FD2B68C3F8A7
:1088A0003475C3F838252B680CBB01221A602A796D
:1088B0002B68500106EB42125268FAB9D3F8101136
:1088C000D3F84421D3F82441114302D1002CF5D030
:1088D0000A46002306449C42F37518BF0324002A6D
:1088E000BCD00F24BAE71F611A760124C3E7D3F87E
:1088F000002242F02002C3F80022D8E74FF40472AD
:10890000C3F804230024A9E79B7E1BB914B92846A9
:10891000FFF771FD06EB080728687B685BBB4FF427
:10892000A27106EB4919FFF735FD2868D0F824310C
:10893000D0F80821D0F8444172B90CB9002BF4D01A
:1089400046440022F275EBB9002CCAD1B17E2B68E7
:10895000012271B11A6081E7002BF1D1002CEFD117
:108960004946FFF758FD7B7EFA7D9A42DDD82346C3
:10897000E6E75A6072E74FF40173C0F80433C1E7C9
:1089800010246BE7032469E750AE002038B5037963
:10899000074C04EB431305461A7F42B99B7E33B95B
:1089A000FFF729FD2B7904EB43140123A37638BD8F
:1089B00050AE00207FB5754C754D237F002B62D0E3
:1089C000D5F82461002E3DD04FF492712846FFF770
:1089D000E9FC02238DF80030D5F88034C5F88034E6
:1089E0000393D5F83C358DF80830E36801930023F4
:1089F000E37523766846D4E9001398476448D0F8B5
:108A000044316BB14FF4A271FFF7CCFCE37D3BB175
:108A10000023E375D0F83C05E168C0B2FFF712FD12
:108A20005B48D0F820315BB14FF49071FFF7BAFC8E
:108A3000A37D2BB1D0F84C155448C9B2FFF7CBFC3D
:108A400004B070BDD5F81031002BD7D028464FF4B4
:108A50008871FFF7A7FCD5F83C35E07DDBB2984282
:108A6000CCD1237EE16863B1D5F8002222F0200248
:108A7000C5F80022E3752369E3602676FFF7E2FC80
:108A8000BCE7E375FAE7D5F804339A0548D5D5F87D
:108A90002431002B44D04FF492712846FFF77AFC22
:108AA0004FF40173C5F80833A37E0BB901236B6043
:108AB000374A02238DF80030D2F88034C2F880346F
:108AC0000393E37D8DF80830E36801930023E37599
:108AD00023766846D4E9001398472D48D0F81C3116
:108AE0003BB1A38AA27D9BB29A4244D92749FFF7A2
:108AF00061FC2748D0F84431002BA1D04FF4A2717B
:108B0000FFF748FCA37E0BB101230360E37D002B3C
:108B100096D00023607EE168E375FFF793FC8FE752
:108B2000D5F804335B07D8D5D5F80831002BD4D05D
:108B300016491748FFF76FFC637EE27D9A42CCD15D
:108B4000237E53B1E3752369E168E3600023607E0F
:108B500023766376FFF776FCBFE7A37E0BB901238C
:108B60006B600B4B4FF40172C3F808230023607E47
:108B7000E168E375EEE74FF48E71FFF70BFCA17D22
:108B80000029B6D00148FFF726FCB2E750AE00201E
:108B9000002000400028C3B2A8BF00F160424FEAA5
:108BA000501010B5BABF0D4A03F00F0402F5614230
:108BB0004FEA41114FEA8000C9B200F16040B4BFF2
:108BC000115582F8001300F5614003F01F020123E4
:108BD0009340C0F88031036010BD00BF14ED00E089
:108BE0000649074A074B9B1A03DD043BC858D0507F
:108BF000FBDCFCF7BDF9FBF74BFB00008C92070098
:108C00000080002060840020FEE7FEE7FEE7FEE72C
:108C1000FEE7FEE7FEE7FEE7FEE7FEE7032A70B4A5
:108C200012D940EA0105AD0704460B4620D119468A
:108C3000204653F8045B54F8046BAE4218D1043A52
:108C4000032A20461946F2D8541E72B103780A78D6
:108C50009A4208BF241806D00CE010F8013F11F822
:108C6000012F934206D1A042F7D1002070BC70477B
:108C7000541EEBE7981A70BC704700BF844641EA67
:108C8000000313F003036DD1403A41D351F8043B84
:108C900040F8043B51F8043B40F8043B51F8043BD6
:108CA00040F8043B51F8043B40F8043B51F8043BC6
:108CB00040F8043B51F8043B40F8043B51F8043BB6
:108CC00040F8043B51F8043B40F8043B51F8043BA6
:108CD00040F8043B51F8043B40F8043B51F8043B96
:108CE00040F8043B51F8043B40F8043B51F8043B86
:108CF00040F8043B51F8043B40F8043B51F8043B76
:108D000040F8043B51F8043B40F8043B403ABDD2E4
:108D1000303211D351F8043B40F8043B51F8043B86
:108D200040F8043B51F8043B40F8043B51F8043B45
:108D300040F8043B103AEDD20C3205D351F8043B15
:108D400040F8043B043AF9D2043208D0D2071CBFE1
:108D500011F8013B00F8013B01D30B88038060460A
:108D6000704700BF082A13D38B078DD010F0030380
:108D70008AD0C3F10403D21ADB071CBF11F8013BF0
:108D800000F8013B80D331F8023B20F8023B7BE73F
:108D9000043AD9D3013A11F8013B00F8013BF9D26A
:108DA0000B7803704B7843708B7883706046704704
:108DB00000000000000000000000000000000000B3
:108DC00090F800F06DE9024520F007016FF0000C0B
:108DD00010F0070491F820F040F049804FF00004B3
:108DE0006FF00700D1E9002391F840F000F108008E
:108DF00082FA4CF2A4FA8CF283FA4CF3A2FA8CF3C6
:108E00004BBBD1E9022382FA4CF200F10800A4FA2C
:108E10008CF283FA4CF3A2FA8CF3E3B9D1E9042380
:108E200082FA4CF200F10800A4FA8CF283FA4CF3B7
:108E3000A2FA8CF37BB9D1E9062301F1200182FA71
:108E40004CF200F10800A4FA8CF283FA4CF3A2FA77
:108E50008CF3002BC6D0002A04BF04301A4612BA85
:108E6000B2FA82F2FDE8024500EBD2007047D1E988
:108E7000002304F00305C4F100004FEAC50514F017
:108E8000040F91F840F00CFA05F562EA05021CBFE8
:108E900063EA050362464FF00004A9E753B94AB9F3
:108EA000002908BF00281CBF4FF0FF314FF0FF30F2
:108EB00000F06EB9ADF1080C6DE904CE00F006F8D3
:108EC000DDF804E0DDE9022304B070472DE9F04746
:108ED000089D04468C46002B40F083808A4217464A
:108EE00047D9B2FA82F242B1C2F1200024FA00F06E
:108EF0009140974040EA010C94404FEA1748230CF8
:108F0000BCFBF8F61FFA87FE08FB16C143EA0143D3
:108F100006FB0EF1994209D9FB1806F1FF3080F0EB
:108F20001981994240F21681023E3B445B1AA4B279
:108F3000B3FBF8F008FB103344EA034400FB0EFED9
:108F4000A64509D93C1900F1FF3380F00581A645FB
:108F500040F2028102383C4440EA0640A4EB0E0491
:108F600000261DB1D4400023C5E900433146BDE8C9
:108F7000F08702B9FFDEB2FA82F2002A50D1CB1B91
:108F80004FEA174E1FFA87F80126B3FBFEFC210CAF
:108F90000EFB1C3341EA034108FB0CF38B4207D95B
:108FA00079180CF1FF3002D28B4200F2E98084463E
:108FB000C91AA3B2B1FBFEF00EFB101143EA014443
:108FC00008FB00F8A04507D93C1900F1FF3302D295
